:4000000000100020110000000D0800000D08000008B500F0FDFBC04638B5164C23688022D20213432360182000F0F8FF2268124B13402360114A124B1A601022114B1A606B
:400040001032114B1A6080221206104B1A60002525600F4A0F4B1A600F4A104B1A6009200F4900F081FF092000F058FF0D4B1D6038BDC04600010B40FFFFFBFF06000080D9
:4000800004010B40080202400C02024008010B400E0000800000024010000080400002402D1200000C020B4010B572B6002410E0294863001A195200821891881B195B00EA
:4000C0001A5AC31858880004104300F0E9FB0134E4B2012CECD9214A214B1A60EE22214B1A6099231B04204A1360204A1360204A1360204B1978022002220A431A701E4CAD
:4001000022783C218A4328390A432270197816220A431A700C22194B1A60D8221201184B1A60C022174B1A60B022D203164B1A6080221202154B1A60154B1860154A164BBD
:400140001A60164B18600322154B1A602132154B1A60FFF761FF10BD001C000099EE00000C0001401000014000500F4010500F4030500F4000700F4001700F4000000440BC
:400180000800044000010440080104400C01044000030440B10D00000803044018030440000404400804044010B5064C2378002B07D1054B002B02D0044800E000BF0123B4
:4001C000237010BDE800002000000000E419000008B5084B002B03D00748084900E000BF07480368002B00D108BD064B002BFBD09847F9E700000000E4190000EC000020C3
:40020000C800002000000000044B1B68002B03D0024A1368013B13607047C0463401002010B562B60024284B1C70284B1C600F20274900F089FE274A274B536027490B6AFE
:400240001B021B0AC020000603430B6294600723136000F0B5FD00F03FFB01F039F800F0EBF8002000F026F901200321002200F0FBF80120002100F097F9194800F01CFEAB
:40028000184800F019FE00200321002200F0ECF80520002100F088F90B4B1B78002B04D00022094B1A7000F041F8084B1B68002BF2D1012001F060F8012001F045F8012037
:4002C00001F04EF8E8E7C04638010020340100200902000010E000E09F0F000000ED00E0E8190000FC19000008B50122054B1A70002001F041F80A22034B1A6000F0E8FF09
:4003000008BDC046380100203401002010B582B001AC3720AA21221C022300F00DFA237860780002181880B202B010BD08B5FFF7EDFF011E3A4B188008D16FE00A1C1A414A
:40034000D20700D5181C0133DBB201E0002310200F2BF3D90F2861D88300324AD3589F46314B185C00F03CFD58E0002000F0A2F801200321002200F077F80120002100F02E
:4003800013F92A4800F098FD294800F095FD00200321002200F068F80520002100F004F93CE0244A13780133DBB213700F2B02D90F22204B1A701F4B1878194B997800F06B
:4003C000F3F82BE01B4B1B78052B02D9013B194A1370184B1878124B997800F0E5F81DE00F4B9B78002B02D0013B0D4A9370114B18780B4B997800F0D7F80FE0084A937858
:400400000133DBB293701E2B02D91E22044B9A70084B1878024B997800F0C6F8002008BD04010020181A0000581A0000E8190000FC190000CC00002008B5034800F076FF2F
:4004400000F04EF908BDC046E902000008B5002803D0044800F030FD03E00248083000F02BFD08BD681A000070B5061C0D1C141C1B2000F0B5FC5B2000F0B2FC301C303069
:4004800000F0AEFC3B2000F0ABFC332000F0A8FC281C303000F0A4FC3B2000F0A1FC342000F09EFC201C303000F09AFC6D2000F097FC70BD38B5051C0A4C201C103000F0A0
:4004C000FBFC281CFFF7C2FF201C143000F0F4FC002007210022FFF7C7FF201C1C3000F0EBFC38BD681A0000F0B593B0031C02910192023A222A01D90A22019200202022FE
:4005000009A98854019A0A2A09D1002B0ADA02990A1C013203922D220A705B4204E0029A039201E0029A0392002B18D11FE007AD04AC201C191C019A01F036F9231C06CBAC
:4005400006C5711E6268D0B2092A01DD372300E03023C3183370079B01370E1C04E0332604AA944666440127002BE0D107E0302209ABDA77322604AB9C4666440227711CBB
:4005800003983A1C01F02CF9029813B0F0BDC04600B587B00A1C01A9FFF7A6FF01A800F08BFC07B000BDC04638B5051C0C1C1B2000F016FC5B2000F013FC281C0A21FFF7E1
:4005C000E7FF3B2000F00CFC201C0A21FFF7E0FF482000F005FC38BDF0B583B00191161C1F1C0090002100F0EDF9C4B2002510E00098002100F06EFBC4B26B1CDDB2322D52
:4006000007D1304800F058FC002000F061FC022055E0A307ECD4002C18D02B4800F04CFC230703D5294800F047FC0AE0630703D5274800F041FC04E0E30702D5254800F0C9
:400640003BFC002000F044FC201C38E0019800F06BFA051CC4B2002C2BD01F4800F02CFC2B0703D5194800F027FC0AE06B0703D5174800F021FC04E0EB0702D5154800F05C
:400680001BFC002000F024FC00F008FAFF24201C284014E0705D00F047FAC4B2002C05D00E4800F009FC002000F012FC0135EDB200E00025BD42EDD300F0F0F9201C03B007
:4006C000F0BDC046D41B0000401B00005C1B0000681B00007C1B0000941B0000B81B000070B582B037200021124A8023FFF774FFC4B26B46DE1D0223337037208621321C7D
:40070000013BFFF769FF2043C4B296256D00281C00F062FCFF23337037208621321CFE3BFFF75AFF2043C4B2281C00F055FC201C02B070BD8C1A0000F0B583B0061C171CA7
:400740001D1C6B46DC1D00232370221CFFF744FF301C012100F036F92070002411E0301C012100F0B7FA6B46D8710134E4B2322C07D1214800F0A0FB002000F0A9FB002065
:4007800038E06B4607331B789A07E8D4002B19D01A4800F091FB6B4607331B781A0703D5174800F089FB0AE05A0703D5154800F083FB04E0DB0702D5134800F07DFB00209C
:4007C00000F086FB00240FE06B1E9C4205D03E19002000F0F5F9307004E03E19012000F0EFF930700134E4B2AC42EDD300F056F96B46D87903B0F0BDCC1B0000E41B000070
:400800005C1B0000681B00007C1B0000FEE7C04670B50F4E0F4D13E029686B68AC68002202E001C901C30432A242FAD1E868002202E0002102C304328242FAD11035013EF9
:40084000002EE9D100F08AFFFFF7EAFCFEE7C04601000000601C000008B500230AE0032B03D89A000A49505800E00A4899000A4A885001332F2BF2D9FFF716FC0022074B9F
:400880001A608022D205116801230B43136008BD000000000D08000000000020C000002008B50A1C002100F0A4FF08BD08B50A2000F034FB08BDC04608B500F01DF808BD59
:4008C00008B5044A1368802109060B431360FFF7EDFF08BD0000064008B5064B1B78002B04D1FFF7E9FF0122024B1A70FFF7E8FF08BDC0460801002010B51D4A11680C23F6
:400900000B43136000241B4B1C601B4A1B4B1A601B4B1C4A13601C4A14601C4A14601C4A13601C4B1C600A2000F002FB0A20032100F02CFB0A20184900F016FB174B1C6016
:40094000174B1C60174B1C601422FF32164B1A60164B1C60164B1C60043AFF3A154B1A70154B1C80154B1C60154B1C6010BDC0467000064000000640770800806000064036
:4009800007010080000306400403064010030640000206400402064091130000C80E0640880E0640480F0640080F0640C80F0640880F064039010020480100205801002060
:4009C0004001002038B52E4B1B78102B53D12D4B1B68DB0751D40D1C041C0A2000F0A8FA6000FF231840002D03D12422244B1A7004E02522224B1A7001231843224B186097
:400A0000224A234B1A600222224B1A60204B1A680823FF331A42F9D01D4B1B685B0714D41B4B1B689B0713D4194B1B68DB0705D51022134B1A70012001210BE01022104BC9
:400A40001A7080204000012104E00020002101E0022000210822FF320D4B1A6000290DD00D4A13685B005B0813601368802109060B43136002E0042000E0082038BDC04676
:400A800039010020640006404002064017030000000F064068000640000006401D4B1B789B0634D51C4B1B689B0601D5182200E010221A4B1A601A4B1A681223FF331A426C
:400AC000F9D0174B1B68DB0606D4154B1B68DB0705D50120012105E00020002102E08020400001211222FF320D4B1A60023AFF3A084B1A7000290BD00A4A13685B005B0887
:400B000013601368802109060B43136000E004207047C046390100206400064068000640000F064000000640214B1B789B063CD5204B1860204B1A680823FF331A42F9D045
:400B40001D4B1B685B0705D56022194B1A700020002119E0184B1B689B0705D56022144B1A70022000210FE0134B1B68DB0705D510220F4B1A700120012105E010220C4B41
:400B80001A708020400001210822FF320A4B1A6000290BD0094A13685B005B0813601368802109060B43136000E004207047C0463901002040020640000F06400000064052
:400BC000011C194B1B789B062BD5184B1B685B0705D4174B1A680223FF331A42F5D0134B1B685B070DD5134B186804220F4B1A60002902D1104B1A6015E060220A4B1A709F
:400C000011E00E4A0A4B1A600D4A13685B005B0813601368802109060B4313600120404201E001204042704739010020C00F0640000F0640400306406800064017030000BA
:400C40000000064010B51F4B1C6800F04BF90028FBD0002000F04EF91B4A13680F218B4313601A4A13685B005B081360A3060FD5002000F03FF90A2000F0C6F9012000F0DD
:400C800039F900F043F90028FBD00A2000F0BCF9002000F02FF90A2000F0B6F901220C4B1A600A4A1368802109060B43136006490B680F229343013A13430B60012000F009
:400CC00019F910BD6400064010000140000006406800064010B52A4B1B789B064DD54000FF240440002903D12422254B1A7004E02522234B1A7001231C43224A224B1A60B9
:400D0000FFF7A0FF214B1B68DB07FBD4204B1C601D4B1A680823FF331A42F9D01A4B1B685B0714D4184B1B689B0713D4164B1B68DB0705D51022124B1A70012001210BE0A3
:400D400010220F4B1A7080204000012104E00020002101E0022000210822FF320A4B1A6000290BD00B4A13685B005B0813601368802109060B43136000E0042010BDC04620
:400D80003901002017030000000F064068000640400206400000064008B500F07BF808BD08B500F02BF808BD08B5044A1368802109060B431360FFF7EFFF08BD000007408D
:400DC00008B5064B1B78002B04D1FFF7E9FF0122024B1A70FFF7E8FF08BDC04610010020044B1B680F221340082BF9D0024B18607047C046080207404002074010B5134AD1
:400E0000134B1A600023134A13600121124A1160124A13480260072412480460124803601248016012490A60124A1360124A1360124A1360124A1360124A1360124A1360DF
:400E4000124A13601268124B1A8010BD0B00000200000740400007404800074007000080000307400403074010030740440007400002074004020740880E0740C80E074067
:400E8000480F0740080F0740C80F0740880F07401201002005490B68F0229343603A13430B60034B1A88034B1A6070470C00014012010020880F074038B5051C002402E022
:400EC000FFF78EFF0134285D0028F9D138BDC04608B5FFF785FF0D20FFF782FF0A20FFF77FFF08BD024B18688007C00F7047C04604040440031C04490868FE2202400120FF
:400F0000184010430860704700040440024B1868012318407047C046040404401F2318401E3B8340181C014B1860704700E100E01F2318401E3B8340181C014B18607047C2
:400F400080E100E001BE704738B5041C0D1C0F2802D90020FFF7F6FFA40080239B059C4664442068256038BD38B5041C0D1C1F2802D90020FFF7E6FFA400034B9C46644425
:400F80002068256038BDC0464000002070B5041C0E1E032E02D90020FFF7D4FF1F2C02D90020FFF7CFFF03252540ED00063500F0C9FBA408A400074B9C4664442368032214
:400FC000AA409343AE40351C1D43256000F0BEFB70BDC04600E400E010B5041C06E0084B186800F0A5FB074B9C46644480231B029C42F4D8024B5868604300F099FB10BDF8
:40100000D00000200080FFFF08B5034B1B7A584300F08EFB08BDC046D0000020F0B557464E46C0B483B0041C00F08CFB0190E71E2D2F74D83F4B1B78DBB2A34208D33E4B8E
:401040001B78DBB29A463D4B1B78DBB2994631E03B4B1B78DBB2A34208D33A4B1B78DBB29A46394B1B78DBB2994623E0374B1B78DBB2A34208D3364B1B78DBB29A46354B04
:401080001B78DBB2994615E0334B1B78DBB2A34208D3324B1B78DBB29A46314B1B78DBB2994607E02F4B1B78DBB29A462E4B1B78DBB299462D4BDE5D2F2E09D92A2C07D9E5
:4010C00019222B4B1A60052000F032FB192503E0274B1D683F231D40AE4206D2234BDA5D234B1A60052000F023FB1F4B9C4664442378DBB21F4A13601F4B52461A601F4B46
:401100004A461A600520FFF77FFFAE420AD9174BDA5D174B1A60052000F00AFB02E00020FFF710FF019800F011FB03B00CBC91469A46F0BDC0F1FF0FC1F1FF0FC2F1FF0FEF
:40114000C3F1FF0FC4F1FF0FC5F1FF0FC6F1FF0FC7F1FF0FC8F1FF0FC9F1FF0FCAF1FF0FCBF1FF0FCCF1FF0FCDF1FF0F0C1C00002CFF0B4028FF0B401CFF0B4020FF0B4002
:40118000034B1868C0231B02184000D00120704700010B4008B500F0D5FA044A1368C02109020B43136000F0D1FA08BD00010B4010B500F0C7FA08490A68084B1A408024CD
:4011C000E40122430A600A6813408022120213430B6000F0BBFA10BD00010B40FF3FFFFF70B5061C00F0AEFA041CFFF7C9FF002803D0FFF7DDFF012500E000250848331CB1
:401200000340084A106808490840184310601368012D01D1FFF7BEFF201C00F097FA70BD0404040010020B40FBFBFBFF10B5244B1B685B0715D5234B1B685B070ED5224B26
:40124000D969042001401F4C22688A432260DA698243DA611B69002B00D098470420FFF7BFFF174B1B685B0518D5164B1B685B0510D5154BD9698022D20011401148026885
:401280008A430260D969114A0A40DA615B69002B00D098478020C000FFF7A2FF084B1B685B030CD5074B1B685B0304D5064B9B69002B00D098478020C002FFF791FF10BD43
:4012C00010020B40E000002014010020FFFBFFFF034A1068802318401060C009C0B2704710010440014B58647047C0460000002010B5041C00F026FA044A1168044B0B40B2
:40130000A4031C43146000F021FA10BD00E400E0FF3FFFFF0222014B1A60704700E100E00222014B1A60704780E100E010B5041CFFF7F6FF201CFFF7D5FF0320FFF7D8FF51
:40134000FFF7E8FF10BDC04604490A68BF231A4080017F3B18401043086070470001044004490A68FB231A408000F73B18401043086070470000044004490A68F7231A404E
:40138000C000EF3B18401043086070470000044010B5C04B1B68002B00D09847BE4B1B68DB0702D50022BD4B1A60BD4B1B789B0628D5BC4B1B68DB0507D5BB4A1188C0231F
:4013C0009B000B431380012300E00023B54A1268D20706D5B44A118890239B000B4313800123002B0FD0AE4A1278D20701D5012200E00222AC49088802430A800021A84A6A
:40140000117000E00023A64A1278920600D414E1A44A1268D20611D51022A44B1A60A04B1B78DB0701D5012300E002239E4A11880B43138010229A4B1A7029E1984A1278B4
:40144000120720D5974A126892070AD50222974B1A60954A118888239B000B431380012311E08F4A1278D20703D525218C4A117009E024218A4A11708D4A1268002A02D0D6
:4014800014398C4A1160864A1278520700D4ABE0834A1278D20749D5874A1268120727D5864A1268864909680F240C40854909686418141B082C09D8002C16D1824A116878
:4014C000824B0B401360012308340EE008240CE07C4A11687E48006841187E480068C0B20870116801311160013C002CF0D119E0714A1268520715D5724A1168744800680D
:40150000411874480068C0B2087011680131116011686A4A1268914203D204216E4A116000E001236D496E4A11605DE05D4A1268920726D502225D4B1A606A4A13680F2111
:401540001940136880221202134000D00123CB18654A1168CB1A13601268644B1A60524A118884239B000B431380614B1A68802149020A431A6019685E4A0A401A6001234A
:4015800032E05D4A1268D20612D424E0564A1168474A1268914211D2534A11685748006841180978C9B2564801601168013111604C4A12680F210A40082AE7D14A4A11684E
:4015C0003B4A1268914202D140213A4A11604D494D4A116008E0484A1268520604D5424B1A68424B1A600123002B51D0364A1168364B0B4013600023444A13602D4A136061
:40160000434B1B789B070ED5254B1B78DB0701D5092300E00A23244A11880B43138060221F4B1A7034E03B4B1B689B0601D5182200E01022284B1A602AE0194B1B78DB0603
:4016400026D4354A13685B005B0813601021144B19701D4B18683149014019601868304901401960002329490B6012490B601B49254B196023491A4B19602A492A4B19609F
:401680002A490A4B19601368802109060B43136010BDC0460C0100208C0E0640880E0640390100200C0F064048010020000F064044010020880F0640CC0F064054010020F0
:4016C000080306405801002060000640FFFEFFFF4C0100204003064068000640ED0F0000C00F0640080206403C0100204001002004020640FFFFFEFF8C0F06405C01002017
:4017000040020640F3070000800F0640C80F0640500100206400064000000640FF5FFFFFFFFCFFFFFF0F0000400F0640170300000230800804D0C0460138FDD1C046C0461B
:40174000C0467047EFF3108072B6704780F310887047C046C046C0467047C0460E4B70B500251E1C0D4CE41AA410A54204D0AB00F35898470135F8E700F060FA084B00257B
:401780001E1C084CE41AA410A54204D0AB00F35898470135F8E770BD481C0000481C0000481C0000501C0000F8B50F1C061C081C111C151C00F026F8291C041C381C00F04C
:4017C00007F9002F04DB002906DA0134491B03E0002901DD013C4919301C34607160F8BD002310B5934203D0CC5CC4540133F9E710BD031C8218934202D019700133FAE79B
:401800007047000003460B437FD4002243088B4274D303098B425FD3030A8B4244D3030B8B4228D3030C8B420DD3FF22090212BA030C8B4202D31212090265D0030B8B4210
:4018400019D300E0090AC30B8B4201D3CB03C01A5241830B8B4201D38B03C01A5241430B8B4201D34B03C01A5241030B8B4201D30B03C01A5241C30A8B4201D3CB02C01ACC
:401880005241830A8B4201D38B02C01A5241430A8B4201D34B02C01A5241030A8B4201D30B02C01A5241CDD2C3098B4201D3CB01C01A524183098B4201D38B01C01A524132
:4018C00043098B4201D34B01C01A524103098B4201D30B01C01A5241C3088B4201D3CB00C01A524183088B4201D38B00C01A524143088B4201D34B00C01A5241411A00D283
:4019000001465241104670475DE0CA0F00D04942031000D34042534000229C4603098B422DD3030A8B4212D3FC22890112BA030A8B420CD3890192118B4208D38901921189
:401940008B4204D389013AD0921100E08909C3098B4201D3CB01C01A524183098B4201D38B01C01A524143098B4201D34B01C01A524103098B4201D30B01C01A5241C308B7
:401980008B4201D3CB00C01A524183088B4201D38B00C01A5241D9D243088B4201D34B00C01A5241411A00D20146634652415B10104601D34042002B00D549427047634629
:4019C0005B1000D3404201B50020FFF7C5FE02BD0029F8D003B5FFF715FF0EBC4243891A1847C0460000000043617053656E7365204B65797061640D0A0000002863292054
:401A0000323031362062792050696F7472205A61706172740D0A000060030000600300006003000060030000600300006003000060030000600300006A0300006003000023
:401A40006003000060030000E0030000A2030000C4030000FC03000031323334353637385339302E4C4455521B5B3F32356C00001B5B3F32356800001B5B6D001B5B324AAC
:401A8000000000001B5B3B4800000000FFFFFFFF000000000000000080808080808080808080808080808080030000000000000000000080050000020002000000000000A5
:401AC000001E1E00001E1E000000010100FFFFFFFFFFFFFFFF0000001403015800370F00000A000000000000000000000000000000000000000000000000000000000000B4
:401B000000000000000000000000B6BA4E41434B2074696D656F7574000000004F4B0000526561642000000057726974652000004572726F720000004932432000000000A8
:401B4000777269746542756620493243205374617274204572726F723D2000004275732062757379200000004D6173746572206E6F74207265616479200000004172622EE8
:401B8000206C6F7374200000427573206572726F722000007772697465427566205265672041646472657373207772697465204572726F723D200000427566666572207760
:401BC00072697465204572726F72000072656164427566204E41434B2074696D656F7574000000007265616442756620493243205374617274204572726F723D200000009E
:401C000000300F40000400400F400004030405060708090A0B0C0E0F101112131415161718191B1C1D1E1F2021222325262728292A2B2E2F3031323334350000F8B5C046EB
:401C4000F8BC08BC9E467047D101000059080000F8B5C046F8BC08BC9E467047A9010000701C0000C8000020200000007800000000000000050000000000E02EC05D000072
:401C80001800000000366E0104040400000000000000000000000000000000000000000000000000000000000000000000000000000000000000000000000000000000005B
:401CC00000000000000000000000000000000000000000000000000000000000000000000000000000000000000000000000000000000000000000000000000000000000E4
:401D000000000000000000000000000000000000000000000000000000000000000000000000000000000000000000000000000000000000000000000000000000000000A3
:401D40000000000000000000000000000000000000000000000000000000000000000000000000000000000000000000000000000000000000000000000000000000000063
:401D80000000000000000000000000000000000000000000000000000000000000000000000000000000000000000000000000000000000000000000000000000000000023
:0200000490303A
:02000000BE2E12
:0200000490402A
:200000000000000000000000000000000000000000000000000000000000000000000000E0
:0200000490501A
:0C000000000204C81193110104D0CFC10C
:0200000490600A
:0100000001FE
:00000001FF